{
  "contractName": "FriedRice",
  "abi": [
    {
      "inputs": [
        {
          "internalType": "string",
          "name": "_name",
          "type": "string"
        },
        {
          "internalType": "string",
          "name": "_ticker",
          "type": "string"
        }
      ],
      "stateMutability": "nonpayable",
      "type": "constructor"
    },
    {
      "anonymous": false,
      "inputs": [
        {
          "indexed": false,
          "internalType": "address",
          "name": "_soul",
          "type": "address"
        }
      ],
      "name": "Burn",
      "type": "event"
    },
    {
      "anonymous": false,
      "inputs": [
        {
          "indexed": false,
          "internalType": "address",
          "name": "_soul",
          "type": "address"
        }
      ],
      "name": "Mint",
      "type": "event"
    },
    {
      "anonymous": false,
      "inputs": [
        {
          "indexed": false,
          "internalType": "address",
          "name": "_profiler",
          "type": "address"
        },
        {
          "indexed": false,
          "internalType": "address",
          "name": "_soul",
          "type": "address"
        }
      ],
      "name": "RemoveProfile",
      "type": "event"
    },
    {
      "anonymous": false,
      "inputs": [
        {
          "indexed": false,
          "internalType": "address",
          "name": "_profiler",
          "type": "address"
        },
        {
          "indexed": false,
          "internalType": "address",
          "name": "_soul",
          "type": "address"
        }
      ],
      "name": "SetProfile",
      "type": "event"
    },
    {
      "anonymous": false,
      "inputs": [
        {
          "indexed": false,
          "internalType": "address",
          "name": "_soul",
          "type": "address"
        }
      ],
      "name": "Update",
      "type": "event"
    },
    {
      "inputs": [],
      "name": "name",
      "outputs": [
        {
          "internalType": "string",
          "name": "",
          "type": "string"
        }
      ],
      "stateMutability": "view",
      "type": "function"
    },
    {
      "inputs": [],
      "name": "operator",
      "outputs": [
        {
          "internalType": "address",
          "name": "",
          "type": "address"
        }
      ],
      "stateMutability": "view",
      "type": "function"
    },
    {
      "inputs": [],
      "name": "ticker",
      "outputs": [
        {
          "internalType": "string",
          "name": "",
          "type": "string"
        }
      ],
      "stateMutability": "view",
      "type": "function"
    },
    {
      "inputs": [
        {
          "internalType": "address",
          "name": "_soul",
          "type": "address"
        },
        {
          "components": [
            {
              "internalType": "string",
              "name": "identity",
              "type": "string"
            },
            {
              "internalType": "string",
              "name": "url",
              "type": "string"
            },
            {
              "internalType": "uint256",
              "name": "score",
              "type": "uint256"
            },
            {
              "internalType": "uint256",
              "name": "timestamp",
              "type": "uint256"
            }
          ],
          "internalType": "struct FriedRice.Soul",
          "name": "_soulData",
          "type": "tuple"
        }
      ],
      "name": "mint",
      "outputs": [],
      "stateMutability": "nonpayable",
      "type": "function"
    },
    {
      "inputs": [
        {
          "internalType": "address",
          "name": "_soul",
          "type": "address"
        }
      ],
      "name": "burn",
      "outputs": [],
      "stateMutability": "nonpayable",
      "type": "function"
    },
    {
      "inputs": [
        {
          "internalType": "address",
          "name": "_soul",
          "type": "address"
        },
        {
          "components": [
            {
              "internalType": "string",
              "name": "identity",
              "type": "string"
            },
            {
              "internalType": "string",
              "name": "url",
              "type": "string"
            },
            {
              "internalType": "uint256",
              "name": "score",
              "type": "uint256"
            },
            {
              "internalType": "uint256",
              "name": "timestamp",
              "type": "uint256"
            }
          ],
          "internalType": "struct FriedRice.Soul",
          "name": "_soulData",
          "type": "tuple"
        }
      ],
      "name": "update",
      "outputs": [],
      "stateMutability": "nonpayable",
      "type": "function"
    },
    {
      "inputs": [
        {
          "internalType": "address",
          "name": "_soul",
          "type": "address"
        }
      ],
      "name": "hasSoul",
      "outputs": [
        {
          "internalType": "bool",
          "name": "",
          "type": "bool"
        }
      ],
      "stateMutability": "view",
      "type": "function"
    },
    {
      "inputs": [
        {
          "internalType": "address",
          "name": "_soul",
          "type": "address"
        }
      ],
      "name": "getSoul",
      "outputs": [
        {
          "components": [
            {
              "internalType": "string",
              "name": "identity",
              "type": "string"
            },
            {
              "internalType": "string",
              "name": "url",
              "type": "string"
            },
            {
              "internalType": "uint256",
              "name": "score",
              "type": "uint256"
            },
            {
              "internalType": "uint256",
              "name": "timestamp",
              "type": "uint256"
            }
          ],
          "internalType": "struct FriedRice.Soul",
          "name": "",
          "type": "tuple"
        }
      ],
      "stateMutability": "view",
      "type": "function"
    },
    {
      "inputs": [
        {
          "internalType": "address",
          "name": "_soul",
          "type": "address"
        },
        {
          "components": [
            {
              "internalType": "string",
              "name": "identity",
              "type": "string"
            },
            {
              "internalType": "string",
              "name": "url",
              "type": "string"
            },
            {
              "internalType": "uint256",
              "name": "score",
              "type": "uint256"
            },
            {
              "internalType": "uint256",
              "name": "timestamp",
              "type": "uint256"
            }
          ],
          "internalType": "struct FriedRice.Soul",
          "name": "_soulData",
          "type": "tuple"
        }
      ],
      "name": "setProfile",
      "outputs": [],
      "stateMutability": "nonpayable",
      "type": "function"
    },
    {
      "inputs": [
        {
          "internalType": "address",
          "name": "_profiler",
          "type": "address"
        },
        {
          "internalType": "address",
          "name": "_soul",
          "type": "address"
        }
      ],
      "name": "getProfile",
      "outputs": [
        {
          "components": [
            {
              "internalType": "string",
              "name": "identity",
              "type": "string"
            },
            {
              "internalType": "string",
              "name": "url",
              "type": "string"
            },
            {
              "internalType": "uint256",
              "name": "score",
              "type": "uint256"
            },
            {
              "internalType": "uint256",
              "name": "timestamp",
              "type": "uint256"
            }
          ],
          "internalType": "struct FriedRice.Soul",
          "name": "",
          "type": "tuple"
        }
      ],
      "stateMutability": "view",
      "type": "function"
    },
    {
      "inputs": [
        {
          "internalType": "address",
          "name": "_soul",
          "type": "address"
        }
      ],
      "name": "listProfiles",
      "outputs": [
        {
          "internalType": "address[]",
          "name": "",
          "type": "address[]"
        }
      ],
      "stateMutability": "view",
      "type": "function"
    },
    {
      "inputs": [
        {
          "internalType": "address",
          "name": "_profiler",
          "type": "address"
        },
        {
          "internalType": "address",
          "name": "_soul",
          "type": "address"
        }
      ],
      "name": "hasProfile",
      "outputs": [
        {
          "internalType": "bool",
          "name": "",
          "type": "bool"
        }
      ],
      "stateMutability": "view",
      "type": "function"
    },
    {
      "inputs": [
        {
          "internalType": "address",
          "name": "_profiler",
          "type": "address"
        },
        {
          "internalType": "address",
          "name": "_soul",
          "type": "address"
        }
      ],
      "name": "removeProfile",
      "outputs": [],
      "stateMutability": "nonpayable",
      "type": "function"
    }
  ],
  "bytecode": "0x60806040527fc5d2460186f7233c927e7db2dcc703c0e500b653ca82273b7bfad8045d85a4706006553480156200003557600080fd5b506040516200155838038062001558833981016040819052620000589162000211565b81516200006d9060039060208501906200009e565b508051620000839060049060208401906200009e565b5050600580546001600160a01b0319163317905550620002b7565b828054620000ac906200027b565b90600052602060002090601f016020900481019282620000d057600085556200011b565b82601f10620000eb57805160ff19168380011785556200011b565b828001600101855582156200011b579182015b828111156200011b578251825591602001919060010190620000fe565b50620001299291506200012d565b5090565b5b808211156200012957600081556001016200012e565b634e487b7160e01b600052604160045260246000fd5b600082601f8301126200016c57600080fd5b81516001600160401b038082111562000189576200018962000144565b604051601f8301601f19908116603f01168101908282118183101715620001b457620001b462000144565b81604052838152602092508683858801011115620001d157600080fd5b600091505b83821015620001f55785820183015181830184015290820190620001d6565b83821115620002075760008385830101525b9695505050505050565b600080604083850312156200022557600080fd5b82516001600160401b03808211156200023d57600080fd5b6200024b868387016200015a565b935060208501519150808211156200026257600080fd5b5062000271858286016200015a565b9150509250929050565b600181811c908216806200029057607f821691505b602082108103620002b157634e487b7160e01b600052602260045260246000fd5b50919050565b61129180620002c76000396000f3fe608060405234801561001057600080fd5b50600436106100cf5760003560e01c80638ba47bdd1161008c578063bdd7520211610066578063bdd75202146101b3578063d904176d146101d6578063dce4aa1b146101e9578063f5a3317d146101fc57600080fd5b80638ba47bdd1461017857806396367d4c14610180578063bb419e1b146101a057600080fd5b806306fdde03146100d457806320a2d60b146100f257806330cff22414610107578063570ca7351461012757806366cfe97f1461015257806389afcb4414610165575b600080fd5b6100dc61020f565b6040516100e99190610e9f565b60405180910390f35b610105610100366004610f9c565b61029d565b005b61011a610115366004611054565b61040d565b6040516100e99190611087565b60055461013a906001600160a01b031681565b6040516001600160a01b0390911681526020016100e9565b61011a6101603660046110e1565b6105a8565b6101056101733660046110e1565b610734565b6100dc6108df565b61019361018e3660046110e1565b6108ec565b6040516100e991906110fc565b6101056101ae366004610f9c565b610962565b6101c66101c13660046110e1565b610ae0565b60405190151581526020016100e9565b6101056101e4366004611054565b610b2d565b6101056101f7366004610f9c565b610c2d565b6101c661020a366004611054565b610d27565b6003805461021c90611149565b80601f016020809104026020016040519081016040528092919081815260200182805461024890611149565b80156102955780601f1061026a57610100808354040283529160200191610295565b820191906000526020600020905b81548152906001019060200180831161027857829003601f168201915b505050505081565b6006546001600160a01b0383166000908152602081905260409081902090516102c69190611183565b6040518091039020146103165760405162461bcd60e51b8152602060048201526013602482015272536f756c20616c72656164792065786973747360681b60448201526064015b60405180910390fd5b6005546001600160a01b031633146103705760405162461bcd60e51b815260206004820181905260248201527f4f6e6c79206f70657261746f722063616e206d696e74206e657720736f756c73604482015260640161030d565b6001600160a01b03821660009081526020818152604090912082518051849361039d928492910190610d7c565b5060208281015180516103b69260018501920190610d7c565b506040828101516002830155606090920151600390910155516001600160a01b03831681527f3c3284d117c92d0b1699230960384e794dcba184cc48ff114fe4fed20c9b0565906020015b60405180910390a15050565b6104386040518060800160405280606081526020016060815260200160008152602001600081525090565b6001600160a01b038084166000908152600160209081526040808320938616835292905281902081516080810190925280548290829061047790611149565b80601f01602080910402602001604051908101604052809291908181526020018280546104a390611149565b80156104f05780601f106104c5576101008083540402835291602001916104f0565b820191906000526020600020905b8154815290600101906020018083116104d357829003601f168201915b5050505050815260200160018201805461050990611149565b80601f016020809104026020016040519081016040528092919081815260200182805461053590611149565b80156105825780601f1061055757610100808354040283529160200191610582565b820191906000526020600020905b81548152906001019060200180831161056557829003601f168201915b505050505081526020016002820154815260200160038201548152505090505b92915050565b6105d36040518060800160405280606081526020016060815260200160008152602001600081525090565b6001600160a01b0382166000908152602081905260409081902081516080810190925280548290829061060590611149565b80601f016020809104026020016040519081016040528092919081815260200182805461063190611149565b801561067e5780601f106106535761010080835404028352916020019161067e565b820191906000526020600020905b81548152906001019060200180831161066157829003601f168201915b5050505050815260200160018201805461069790611149565b80601f01602080910402602001604051908101604052809291908181526020018280546106c390611149565b80156107105780601f106106e557610100808354040283529160200191610710565b820191906000526020600020905b8154815290600101906020018083116106f357829003601f168201915b50505050508152602001600282015481526020016003820154815250509050919050565b336001600160a01b038216146107a05760405162461bcd60e51b815260206004820152602b60248201527f4f6e6c7920757365727320686176652072696768747320746f2064656c65746560448201526a207468656972206461746160a81b606482015260840161030d565b6001600160a01b0381166000908152602081905260408120906107c38282610e00565b6107d1600183016000610e00565b60028201600090556003820160009055505060005b6001600160a01b03821660009081526002602052604090205481101561089f576001600160a01b03821660009081526002602052604081208054839081106108305761083061121e565b60009182526020808320909101546001600160a01b0390811680845260018352604080852092881685529190925282209092509061086e8282610e00565b61087c600183016000610e00565b50600060028201819055600390910155508061089781611234565b9150506107e6565b506040516001600160a01b03821681527fe22de1457cb61fb61b60176bc4235a9abd19466126b46692bc14fc573f0992499060200160405180910390a150565b6004805461021c90611149565b6001600160a01b03811660009081526002602090815260409182902080548351818402810184019094528084526060939283018282801561095657602002820191906000526020600020905b81546001600160a01b03168152600190910190602001808311610938575b50505050509050919050565b6006546001600160a01b03831660009081526020819052604090819020905161098b9190611183565b604051809103902003610a065760405162461bcd60e51b815260206004820152603b60248201527f43616e6e6f742063726561746520612070726f66696c6520666f72206120736f60448201527f756c207468617420686173206e6f74206265656e206d696e7465640000000000606482015260840161030d565b3360009081526001602090815260408083206001600160a01b03861684528252909120825180518493610a3d928492910190610d7c565b506020828101518051610a569260018501920190610d7c565b506040828101516002838101919091556060909301516003909201919091556001600160a01b038416600081815260209384528281208054600181018255908252908490200180546001600160a01b031916339081179091558251908152928301527fa23ac7e4240980962523625b2d1d3aa221354fcc90b374cf0e21685c94288d3e9101610401565b6006546001600160a01b0382166000908152602081905260408082209051919291610b0b9190611183565b604051809103902003610b2057506000919050565b506001919050565b919050565b336001600160a01b03821614610ba15760405162461bcd60e51b815260206004820152603360248201527f4f6e6c7920757365727320686176652072696768747320746f2064656c6574656044820152722074686569722070726f66696c65206461746160681b606482015260840161030d565b6001600160a01b0382166000908152600160209081526040808320338452909152812090610bcf8282610e00565b610bdd600183016000610e00565b50600060028201819055600390910155604080516001600160a01b038085168252831660208201527fbecbd0337c25e4ba3474143b6f75afd8775e682adad51f00d8f5b0740406fd339101610401565b6005546001600160a01b03163314610c925760405162461bcd60e51b815260206004820152602260248201527f4f6e6c79206f70657261746f722063616e2075706461746520736f756c206461604482015261746160f01b606482015260840161030d565b6001600160a01b038216600090815260208181526040909120825180518493610cbf928492910190610d7c565b506020828101518051610cd89260018501920190610d7c565b506040828101516002830155606090920151600390910155516001600160a01b03831681527fd456720fd185d4060f5cea4d82775d2af95048c1e10f227ec35bae950a4be2a890602001610401565b6006546001600160a01b03808416600090815260016020908152604080832093861683529290528181209151909291610d5f91611183565b604051809103902003610d74575060006105a2565b5060016105a2565b828054610d8890611149565b90600052602060002090601f016020900481019282610daa5760008555610df0565b82601f10610dc357805160ff1916838001178555610df0565b82800160010185558215610df0579182015b82811115610df0578251825591602001919060010190610dd5565b50610dfc929150610e3d565b5090565b508054610e0c90611149565b6000825580601f10610e1c575050565b601f016020900490600052602060002090810190610e3a9190610e3d565b50565b5b80821115610dfc5760008155600101610e3e565b6000815180845260005b81811015610e7857602081850181015186830182015201610e5c565b81811115610e8a576000602083870101525b50601f01601f19169290920160200192915050565b602081526000610eb26020830184610e52565b9392505050565b80356001600160a01b0381168114610b2857600080fd5b634e487b7160e01b600052604160045260246000fd5b6040516080810167ffffffffffffffff81118282101715610f0957610f09610ed0565b60405290565b600082601f830112610f2057600080fd5b813567ffffffffffffffff80821115610f3b57610f3b610ed0565b604051601f8301601f19908116603f01168101908282118183101715610f6357610f63610ed0565b81604052838152866020858801011115610f7c57600080fd5b836020870160208301376000602085830101528094505050505092915050565b60008060408385031215610faf57600080fd5b610fb883610eb9565b9150602083013567ffffffffffffffff80821115610fd557600080fd5b9084019060808287031215610fe957600080fd5b610ff1610ee6565b82358281111561100057600080fd5b61100c88828601610f0f565b82525060208301358281111561102157600080fd5b61102d88828601610f0f565b60208301525060408301356040820152606083013560608201528093505050509250929050565b6000806040838503121561106757600080fd5b61107083610eb9565b915061107e60208401610eb9565b90509250929050565b6020815260008251608060208401526110a360a0840182610e52565b90506020840151601f198483030160408501526110c08282610e52565b91505060408401516060840152606084015160808401528091505092915050565b6000602082840312156110f357600080fd5b610eb282610eb9565b6020808252825182820181905260009190848201906040850190845b8181101561113d5783516001600160a01b031683529284019291840191600101611118565b50909695505050505050565b600181811c9082168061115d57607f821691505b60208210810361117d57634e487b7160e01b600052602260045260246000fd5b50919050565b600080835481600182811c91508083168061119f57607f831692505b602080841082036111be57634e487b7160e01b86526022600452602486fd5b8180156111d257600181146111e357611210565b60ff19861689528489019650611210565b60008a81526020902060005b868110156112085781548b8201529085019083016111ef565b505084890196505b509498975050505050505050565b634e487b7160e01b600052603260045260246000fd5b60006001820161125457634e487b7160e01b600052601160045260246000fd5b506001019056fea2646970667358221220d3efbc97289d9310c9989b43d488729ce486d7284eb4a5e7569fe4760c8c7ba964736f6c634300080d0033",
  "immutableReferences": {},
  "source": "// SPDX-License-Identifier: MIT\r\npragma solidity ^0.8.13;\r\n\r\n/**\r\n * An experiment in Soul Bound Tokens (SBT's) following Vitalik's\r\n * co-authored whitepaper at:\r\n * https://papers.ssrn.com/sol3/papers.cfm?abstract_id=4105763\r\n *\r\n * I propose for a rename to Non-Transferable Tokens NTT's\r\n */\r\n\r\ncontract FriedRice {\r\n\r\n    struct Soul {\r\n        string identity;\r\n        // add issuer specific fields below\r\n        string url;\r\n        uint256 score;\r\n        uint256 timestamp;\r\n    }\r\n\r\n    mapping (address => Soul) private souls;\r\n    mapping (address => mapping (address => Soul)) soulProfiles;\r\n    mapping (address => address[]) private profiles;\r\n\r\n    string public name;\r\n    string public ticker;\r\n    address public operator;\r\n    bytes32 private zeroHash = 0xc5d2460186f7233c927e7db2dcc703c0e500b653ca82273b7bfad8045d85a470;\r\n    \r\n    event Mint(address _soul);\r\n    event Burn(address _soul);\r\n    event Update(address _soul);\r\n    event SetProfile(address _profiler, address _soul);\r\n    event RemoveProfile(address _profiler, address _soul);\r\n\r\n    constructor(string memory _name, string memory _ticker) {\r\n      name = _name;\r\n      ticker = _ticker;\r\n      operator = msg.sender;\r\n    }\r\n\r\n    function mint(address _soul, Soul memory _soulData) external {\r\n        require(keccak256(bytes(souls[_soul].identity)) == zeroHash, \"Soul already exists\");\r\n        require(msg.sender == operator, \"Only operator can mint new souls\");\r\n        souls[_soul] = _soulData;\r\n        emit Mint(_soul);\r\n    }\r\n\r\n    function burn(address _soul) external {\r\n        require(msg.sender == _soul, \"Only users have rights to delete their data\");\r\n        delete souls[_soul];\r\n        for (uint i=0; i<profiles[_soul].length; i++) {\r\n            address profiler = profiles[_soul][i];\r\n            delete soulProfiles[profiler][_soul];\r\n        }\r\n        emit Burn(_soul);\r\n    }\r\n\r\n    function update(address _soul, Soul memory _soulData) external {\r\n        require(msg.sender == operator, \"Only operator can update soul data\");\r\n        souls[_soul] = _soulData;\r\n        emit Update(_soul);\r\n    }\r\n\r\n    function hasSoul(address _soul) external view returns (bool) {\r\n        if (keccak256(bytes(souls[_soul].identity)) == zeroHash) {\r\n            return false;\r\n        } else {\r\n            return true;\r\n        }\r\n    }\r\n\r\n    function getSoul(address _soul) external view returns (Soul memory) {\r\n        return souls[_soul];\r\n    }\r\n\r\n    /**\r\n     * Profiles are used by 3rd parties and individual users to store data.\r\n     * Data is stored in a nested mapping relative to msg.sender\r\n     * By default they can only store data on addresses that have been minted\r\n     */\r\n    function setProfile(address _soul, Soul memory _soulData) external {\r\n        require(keccak256(bytes(souls[_soul].identity)) != zeroHash, \"Cannot create a profile for a soul that has not been minted\");\r\n        soulProfiles[msg.sender][_soul] = _soulData;\r\n        profiles[_soul].push(msg.sender);\r\n        emit SetProfile(msg.sender, _soul);\r\n    }\r\n\r\n    function getProfile(address _profiler, address _soul) external view returns (Soul memory) {\r\n        return soulProfiles[_profiler][_soul];\r\n    }\r\n\r\n    function listProfiles(address _soul) external view returns (address[] memory) {\r\n        return profiles[_soul];\r\n    }\r\n\r\n    function hasProfile(address _profiler, address _soul) external view returns (bool) {\r\n        if (keccak256(bytes(soulProfiles[_profiler][_soul].identity)) == zeroHash) {\r\n            return false;\r\n        } else {\r\n            return true;\r\n        }\r\n    }\r\n\r\n    function removeProfile(address _profiler, address _soul) external {\r\n        require(msg.sender == _soul, \"Only users have rights to delete their profile data\");\r\n        delete soulProfiles[_profiler][msg.sender];\r\n        emit RemoveProfile(_profiler, _soul);\r\n    }\r\n}",
  "sourcePath": "C:\\Users\\SHUBHAM\\Documents\\NFT-war\\contracts\\FriedRice.sol",
  "compiler": {
    "name": "solc",
    "version": "0.8.13+commit.abaa5c0e.Emscripten.clang"
  },
  "schemaVersion": "3.4.8",
  "updatedAt": "2022-07-27T14:14:12.104Z",
  "devdoc": {
    "kind": "dev",
    "methods": {},
    "version": 1
  },
  "userdoc": {
    "kind": "user",
    "methods": {
      "setProfile(address,(string,string,uint256,uint256))": {
        "notice": "Profiles are used by 3rd parties and individual users to store data. Data is stored in a nested mapping relative to msg.sender By default they can only store data on addresses that have been minted"
      }
    },
    "notice": "An experiment in Soul Bound Tokens (SBT's) following Vitalik's co-authored whitepaper at: https://papers.ssrn.com/sol3/papers.cfm?abstract_id=4105763 I propose for a rename to Non-Transferable Tokens NTT's",
    "version": 1
  }
}